{
  "_format": "hh-sol-artifact-1",
  "contractName": "voting",
  "sourceName": "contracts/voting.sol",
  "abi": [
    {
      "inputs": [
        {
          "internalType": "address",
          "name": "velidatorAdd",
          "type": "address"
        },
        {
          "internalType": "address",
          "name": "_votervalidator",
          "type": "address"
        }
      ],
      "stateMutability": "nonpayable",
      "type": "constructor"
    },
    {
      "inputs": [
        {
          "internalType": "address",
          "name": "_addr",
          "type": "address"
        },
        {
          "internalType": "string",
          "name": "_Canname",
          "type": "string"
        }
      ],
      "name": "addrCandidate",
      "outputs": [],
      "stateMutability": "nonpayable",
      "type": "function"
    },
    {
      "inputs": [
        {
          "internalType": "address",
          "name": "_voterAddress",
          "type": "address"
        },
        {
          "internalType": "string",
          "name": "_name",
          "type": "string"
        },
        {
          "internalType": "string",
          "name": "_NID",
          "type": "string"
        }
      ],
      "name": "addrVoter",
      "outputs": [],
      "stateMutability": "nonpayable",
      "type": "function"
    },
    {
      "inputs": [
        {
          "internalType": "uint256",
          "name": "",
          "type": "uint256"
        }
      ],
      "name": "canAddress",
      "outputs": [
        {
          "internalType": "address",
          "name": "",
          "type": "address"
        }
      ],
      "stateMutability": "view",
      "type": "function"
    },
    {
      "inputs": [],
      "name": "canValidator",
      "outputs": [
        {
          "internalType": "address",
          "name": "",
          "type": "address"
        }
      ],
      "stateMutability": "view",
      "type": "function"
    },
    {
      "inputs": [
        {
          "internalType": "address",
          "name": "",
          "type": "address"
        }
      ],
      "name": "candidateInfo",
      "outputs": [
        {
          "internalType": "address",
          "name": "addr",
          "type": "address"
        },
        {
          "internalType": "string",
          "name": "canName",
          "type": "string"
        },
        {
          "internalType": "uint256",
          "name": "totalVote",
          "type": "uint256"
        },
        {
          "internalType": "bool",
          "name": "isVerifiedCan",
          "type": "bool"
        }
      ],
      "stateMutability": "view",
      "type": "function"
    },
    {
      "inputs": [],
      "name": "owner",
      "outputs": [
        {
          "internalType": "address",
          "name": "",
          "type": "address"
        }
      ],
      "stateMutability": "view",
      "type": "function"
    },
    {
      "inputs": [
        {
          "internalType": "address",
          "name": "canADD",
          "type": "address"
        }
      ],
      "name": "verifyCandidate",
      "outputs": [],
      "stateMutability": "nonpayable",
      "type": "function"
    },
    {
      "inputs": [
        {
          "internalType": "address",
          "name": "voterADD",
          "type": "address"
        }
      ],
      "name": "verifyVoter",
      "outputs": [],
      "stateMutability": "nonpayable",
      "type": "function"
    },
    {
      "inputs": [
        {
          "internalType": "address",
          "name": "_candidate",
          "type": "address"
        }
      ],
      "name": "vote",
      "outputs": [],
      "stateMutability": "nonpayable",
      "type": "function"
    },
    {
      "inputs": [
        {
          "internalType": "address",
          "name": "",
          "type": "address"
        }
      ],
      "name": "voterInfo",
      "outputs": [
        {
          "internalType": "address",
          "name": "voteraddress",
          "type": "address"
        },
        {
          "internalType": "string",
          "name": "voterName",
          "type": "string"
        },
        {
          "internalType": "string",
          "name": "NID",
          "type": "string"
        },
        {
          "internalType": "bool",
          "name": "isVerifiedvoter",
          "type": "bool"
        },
        {
          "internalType": "bool",
          "name": "isVoted",
          "type": "bool"
        }
      ],
      "stateMutability": "view",
      "type": "function"
    },
    {
      "inputs": [],
      "name": "voterValidator",
      "outputs": [
        {
          "internalType": "address",
          "name": "",
          "type": "address"
        }
      ],
      "stateMutability": "view",
      "type": "function"
    },
    {
      "inputs": [],
      "name": "winnerCandidate",
      "outputs": [
        {
          "internalType": "address",
          "name": "",
          "type": "address"
        },
        {
          "internalType": "uint256",
          "name": "",
          "type": "uint256"
        }
      ],
      "stateMutability": "view",
      "type": "function"
    }
  ],
  "bytecode": "0x60806040523480156200001157600080fd5b5060405162001f8238038062001f8283398181016040528101906200003791906200016b565b336000806101000a81548173ffffffffffffffffffffffffffffffffffffffff021916908373ffffffffffffffffffffffffffffffffffffffff16021790555081600160006101000a81548173ffffffffffffffffffffffffffffffffffffffff021916908373ffffffffffffffffffffffffffffffffffffffff16021790555080600260006101000a81548173ffffffffffffffffffffffffffffffffffffffff021916908373ffffffffffffffffffffffffffffffffffffffff1602179055505050620001b2565b600080fd5b600073ffffffffffffffffffffffffffffffffffffffff82169050919050565b6000620001338262000106565b9050919050565b620001458162000126565b81146200015157600080fd5b50565b60008151905062000165816200013a565b92915050565b6000806040838503121562000185576200018462000101565b5b6000620001958582860162000154565b9250506020620001a88582860162000154565b9150509250929050565b611dc080620001c26000396000f3fe608060405234801561001057600080fd5b50600436106100b45760003560e01c80639c7cec27116100715780639c7cec2714610165578063a0de181f14610195578063a15148d1146101b1578063cb28c75c146101d0578063cdf58d35146101ee578063e965b7c914610222576100b4565b8063095dcce4146100b957806309bd0950146100d757806335ba1602146100f35780636dd7d8ea1461010f5780638da5cb5b1461012b578063969dda3414610149575b600080fd5b6100c1610255565b6040516100ce91906110fd565b60405180910390f35b6100f160048036038101906100ec9190611158565b61027b565b005b61010d600480360381019061010891906112cb565b6103f9565b005b61012960048036038101906101249190611158565b6105bf565b005b610133610825565b60405161014091906110fd565b60405180910390f35b610163600480360381019061015e9190611158565b610849565b005b61017f600480360381019061017a919061135d565b6109c7565b60405161018c91906110fd565b60405180910390f35b6101af60048036038101906101aa919061138a565b610a06565b005b6101b9610c1d565b6040516101c7929190611424565b60405180910390f35b6101d8610e31565b6040516101e591906110fd565b60405180910390f35b61020860048036038101906102039190611158565b610e57565b6040516102199594939291906114e7565b60405180910390f35b61023c60048036038101906102379190611158565b610fd7565b60405161024c9493929190611548565b60405180910390f35b600260009054906101000a900473ffffffffffffffffffffffffffffffffffffffff1681565b600260009054906101000a900473ffffffffffffffffffffffffffffffffffffffff1673ffffffffffffffffffffffffffffffffffffffff163373ffffffffffffffffffffffffffffffffffffffff161461030b576040517f08c379a000000000000000000000000000000000000000000000000000000000815260040161030290611606565b60405180910390fd5b600660008273ffffffffffffffffffffffffffffffffffffffff1673ffffffffffffffffffffffffffffffffffffffff16815260200190815260200160002060030160009054906101000a900460ff161561039b576040517f08c379a000000000000000000000000000000000000000000000000000000000815260040161039290611672565b60405180910390fd5b6001600660008373ffffffffffffffffffffffffffffffffffffffff1673ffffffffffffffffffffffffffffffffffffffff16815260200190815260200160002060030160006101000a81548160ff02191690831515021790555050565b3373ffffffffffffffffffffffffffffffffffffffff1660008054906101000a900473ffffffffffffffffffffffffffffffffffffffff1673ffffffffffffffffffffffffffffffffffffffff1614610487576040517f08c379a000000000000000000000000000000000000000000000000000000000815260040161047e906116de565b60405180910390fd5b81600360008473ffffffffffffffffffffffffffffffffffffffff1673ffffffffffffffffffffffffffffffffffffffff16815260200190815260200160002060000160006101000a81548173ffffffffffffffffffffffffffffffffffffffff021916908373ffffffffffffffffffffffffffffffffffffffff16021790555080600360008473ffffffffffffffffffffffffffffffffffffffff1673ffffffffffffffffffffffffffffffffffffffff1681526020019081526020016000206001019081610557919061190a565b506004829080600181540180825580915050600190039060005260206000200160009091909190916101000a81548173ffffffffffffffffffffffffffffffffffffffff021916908373ffffffffffffffffffffffffffffffffffffffff1602179055505050565b600660003373ffffffffffffffffffffffffffffffffffffffff1673ffffffffffffffffffffffffffffffffffffffff16815260200190815260200160002060030160009054906101000a900460ff1661064e576040517f08c379a000000000000000000000000000000000000000000000000000000000815260040161064590611a28565b60405180910390fd5b600360008273ffffffffffffffffffffffffffffffffffffffff1673ffffffffffffffffffffffffffffffffffffffff16815260200190815260200160002060030160009054906101000a900460ff166106dd576040517f08c379a00000000000000000000000000000000000000000000000000000000081526004016106d490611a94565b60405180910390fd5b600660003373ffffffffffffffffffffffffffffffffffffffff1673ffffffffffffffffffffffffffffffffffffffff16815260200190815260200160002060030160019054906101000a900460ff161561076d576040517f08c379a000000000000000000000000000000000000000000000000000000000815260040161076490611b00565b60405180910390fd5b6001600660003373ffffffffffffffffffffffffffffffffffffffff1673ffffffffffffffffffffffffffffffffffffffff16815260200190815260200160002060030160016101000a81548160ff0219169083151502179055506001600360008373ffffffffffffffffffffffffffffffffffffffff1673ffffffffffffffffffffffffffffffffffffffff168152602001908152602001600020600201600082825461081b9190611b4f565b9250508190555050565b60008054906101000a900473ffffffffffffffffffffffffffffffffffffffff1681565b600160009054906101000a900473ffffffffffffffffffffffffffffffffffffffff1673ffffffffffffffffffffffffffffffffffffffff163373ffffffffffffffffffffffffffffffffffffffff16146108d9576040517f08c379a00000000000000000000000000000000000000000000000000000000081526004016108d090611bf5565b60405180910390fd5b600360008273ffffffffffffffffffffffffffffffffffffffff1673ffffffffffffffffffffffffffffffffffffffff16815260200190815260200160002060030160009054906101000a900460ff1615610969576040517f08c379a000000000000000000000000000000000000000000000000000000000815260040161096090611c61565b60405180910390fd5b6001600360008373ffffffffffffffffffffffffffffffffffffffff1673ffffffffffffffffffffffffffffffffffffffff16815260200190815260200160002060030160006101000a81548160ff02191690831515021790555050565b600481815481106109d757600080fd5b906000526020600020016000915054906101000a900473ffffffffffffffffffffffffffffffffffffffff1681565b3373ffffffffffffffffffffffffffffffffffffffff1660008054906101000a900473ffffffffffffffffffffffffffffffffffffffff1673ffffffffffffffffffffffffffffffffffffffff1614610a94576040517f08c379a0000000000000000000000000000000000000000000000000000000008152600401610a8b906116de565b60405180910390fd5b82600660008573ffffffffffffffffffffffffffffffffffffffff1673ffffffffffffffffffffffffffffffffffffffff16815260200190815260200160002060000160006101000a81548173ffffffffffffffffffffffffffffffffffffffff021916908373ffffffffffffffffffffffffffffffffffffffff16021790555081600660008573ffffffffffffffffffffffffffffffffffffffff1673ffffffffffffffffffffffffffffffffffffffff1681526020019081526020016000206001019081610b64919061190a565b5080600660008573ffffffffffffffffffffffffffffffffffffffff1673ffffffffffffffffffffffffffffffffffffffff1681526020019081526020016000206002019081610bb4919061190a565b506005839080600181540180825580915050600190039060005260206000200160009091909190916101000a81548173ffffffffffffffffffffffffffffffffffffffff021916908373ffffffffffffffffffffffffffffffffffffffff160217905550505050565b60008060008054906101000a900473ffffffffffffffffffffffffffffffffffffffff1673ffffffffffffffffffffffffffffffffffffffff163373ffffffffffffffffffffffffffffffffffffffff1614610cae576040517f08c379a0000000000000000000000000000000000000000000000000000000008152600401610ca590611cf3565b60405180910390fd5b60008080600090505b600480549050811015610e2457826003600060048481548110610cdd57610cdc611d13565b5b9060005260206000200160009054906101000a900473ffffffffffffffffffffffffffffffffffffffff1673ffffffffffffffffffffffffffffffffffffffff1673ffffffffffffffffffffffffffffffffffffffff168152602001908152602001600020600201541115610e11576003600060048381548110610d6457610d63611d13565b5b9060005260206000200160009054906101000a900473ffffffffffffffffffffffffffffffffffffffff1673ffffffffffffffffffffffffffffffffffffffff1673ffffffffffffffffffffffffffffffffffffffff16815260200190815260200160002060020154925060048181548110610de357610de2611d13565b5b9060005260206000200160009054906101000a900473ffffffffffffffffffffffffffffffffffffffff1691505b8080610e1c90611d42565b915050610cb7565b5080829350935050509091565b600160009054906101000a900473ffffffffffffffffffffffffffffffffffffffff1681565b60066020528060005260406000206000915090508060000160009054906101000a900473ffffffffffffffffffffffffffffffffffffffff1690806001018054610ea09061172d565b80601f0160208091040260200160405190810160405280929190818152602001828054610ecc9061172d565b8015610f195780601f10610eee57610100808354040283529160200191610f19565b820191906000526020600020905b815481529060010190602001808311610efc57829003601f168201915b505050505090806002018054610f2e9061172d565b80601f0160208091040260200160405190810160405280929190818152602001828054610f5a9061172d565b8015610fa75780601f10610f7c57610100808354040283529160200191610fa7565b820191906000526020600020905b815481529060010190602001808311610f8a57829003601f168201915b5050505050908060030160009054906101000a900460ff16908060030160019054906101000a900460ff16905085565b60036020528060005260406000206000915090508060000160009054906101000a900473ffffffffffffffffffffffffffffffffffffffff16908060010180546110209061172d565b80601f016020809104026020016040519081016040528092919081815260200182805461104c9061172d565b80156110995780601f1061106e57610100808354040283529160200191611099565b820191906000526020600020905b81548152906001019060200180831161107c57829003601f168201915b5050505050908060020154908060030160009054906101000a900460ff16905084565b600073ffffffffffffffffffffffffffffffffffffffff82169050919050565b60006110e7826110bc565b9050919050565b6110f7816110dc565b82525050565b600060208201905061111260008301846110ee565b92915050565b6000604051905090565b600080fd5b600080fd5b611135816110dc565b811461114057600080fd5b50565b6000813590506111528161112c565b92915050565b60006020828403121561116e5761116d611122565b5b600061117c84828501611143565b91505092915050565b600080fd5b600080fd5b6000601f19601f8301169050919050565b7f4e487b7100000000000000000000000000000000000000000000000000000000600052604160045260246000fd5b6111d88261118f565b810181811067ffffffffffffffff821117156111f7576111f66111a0565b5b80604052505050565b600061120a611118565b905061121682826111cf565b919050565b600067ffffffffffffffff821115611236576112356111a0565b5b61123f8261118f565b9050602081019050919050565b82818337600083830152505050565b600061126e6112698461121b565b611200565b90508281526020810184848401111561128a5761128961118a565b5b61129584828561124c565b509392505050565b600082601f8301126112b2576112b1611185565b5b81356112c284826020860161125b565b91505092915050565b600080604083850312156112e2576112e1611122565b5b60006112f085828601611143565b925050602083013567ffffffffffffffff81111561131157611310611127565b5b61131d8582860161129d565b9150509250929050565b6000819050919050565b61133a81611327565b811461134557600080fd5b50565b60008135905061135781611331565b92915050565b60006020828403121561137357611372611122565b5b600061138184828501611348565b91505092915050565b6000806000606084860312156113a3576113a2611122565b5b60006113b186828701611143565b935050602084013567ffffffffffffffff8111156113d2576113d1611127565b5b6113de8682870161129d565b925050604084013567ffffffffffffffff8111156113ff576113fe611127565b5b61140b8682870161129d565b9150509250925092565b61141e81611327565b82525050565b600060408201905061143960008301856110ee565b6114466020830184611415565b9392505050565b600081519050919050565b600082825260208201905092915050565b60005b8381101561148757808201518184015260208101905061146c565b60008484015250505050565b600061149e8261144d565b6114a88185611458565b93506114b8818560208601611469565b6114c18161118f565b840191505092915050565b60008115159050919050565b6114e1816114cc565b82525050565b600060a0820190506114fc60008301886110ee565b818103602083015261150e8187611493565b905081810360408301526115228186611493565b905061153160608301856114d8565b61153e60808301846114d8565b9695505050505050565b600060808201905061155d60008301876110ee565b818103602083015261156f8186611493565b905061157e6040830185611415565b61158b60608301846114d8565b95945050505050565b7f4f6e6c792074686520766f7465722076616c696461746f722063616e2061636360008201527f65737320746869732066756e6374696f6e000000000000000000000000000000602082015250565b60006115f0603183611458565b91506115fb82611594565b604082019050919050565b6000602082019050818103600083015261161f816115e3565b9050919050565b7f54686520766f746572206973206e6f74206c69737465642e0000000000000000600082015250565b600061165c601883611458565b915061166782611626565b602082019050919050565b6000602082019050818103600083015261168b8161164f565b9050919050565b7f4f6e6c79206f776e65722063616e206164642063616e64696461746573000000600082015250565b60006116c8601d83611458565b91506116d382611692565b602082019050919050565b600060208201905081810360008301526116f7816116bb565b9050919050565b7f4e487b7100000000000000000000000000000000000000000000000000000000600052602260045260246000fd5b6000600282049050600182168061174557607f821691505b602082108103611758576117576116fe565b5b50919050565b60008190508160005260206000209050919050565b60006020601f8301049050919050565b600082821b905092915050565b6000600883026117c07fffffffffffffffffffffffffffffffffffffffffffffffffffffffffffffffff82611783565b6117ca8683611783565b95508019841693508086168417925050509392505050565b6000819050919050565b60006118076118026117fd84611327565b6117e2565b611327565b9050919050565b6000819050919050565b611821836117ec565b61183561182d8261180e565b848454611790565b825550505050565b600090565b61184a61183d565b611855818484611818565b505050565b5b818110156118795761186e600082611842565b60018101905061185b565b5050565b601f8211156118be5761188f8161175e565b61189884611773565b810160208510156118a7578190505b6118bb6118b385611773565b83018261185a565b50505b505050565b600082821c905092915050565b60006118e1600019846008026118c3565b1980831691505092915050565b60006118fa83836118d0565b9150826002028217905092915050565b6119138261144d565b67ffffffffffffffff81111561192c5761192b6111a0565b5b611936825461172d565b61194182828561187d565b600060209050601f8311600181146119745760008415611962578287015190505b61196c85826118ee565b8655506119d4565b601f1984166119828661175e565b60005b828110156119aa57848901518255600182019150602085019450602081019050611985565b868310156119c757848901516119c3601f8916826118d0565b8355505b6001600288020188555050505b505050505050565b7f566f746572206973206e6f742076657269666965640000000000000000000000600082015250565b6000611a12601583611458565b9150611a1d826119dc565b602082019050919050565b60006020820190508181036000830152611a4181611a05565b9050919050565b7f43616e646964617465206973206e6f7420766572696669656400000000000000600082015250565b6000611a7e601983611458565b9150611a8982611a48565b602082019050919050565b60006020820190508181036000830152611aad81611a71565b9050919050565b7f566f7465722068617320616c726561647920766f746564000000000000000000600082015250565b6000611aea601783611458565b9150611af582611ab4565b602082019050919050565b60006020820190508181036000830152611b1981611add565b9050919050565b7f4e487b7100000000000000000000000000000000000000000000000000000000600052601160045260246000fd5b6000611b5a82611327565b9150611b6583611327565b9250828201905080821115611b7d57611b7c611b20565b5b92915050565b7f4f6e6c79207468652063616e6469646174652076616c696461746f722063616e60008201527f2061636365737320746869732066756e6374696f6e0000000000000000000000602082015250565b6000611bdf603583611458565b9150611bea82611b83565b604082019050919050565b60006020820190508181036000830152611c0e81611bd2565b9050919050565b7f5468652063616e646964617465206973206e6f74206c69737465642e00000000600082015250565b6000611c4b601c83611458565b9150611c5682611c15565b602082019050919050565b60006020820190508181036000830152611c7a81611c3e565b9050919050565b7f46756e6374696f6e2063616c6c6572206973206e6f74206f776e6572206f662060008201527f74686520636f6e74726163742e00000000000000000000000000000000000000602082015250565b6000611cdd602d83611458565b9150611ce882611c81565b604082019050919050565b60006020820190508181036000830152611d0c81611cd0565b9050919050565b7f4e487b7100000000000000000000000000000000000000000000000000000000600052603260045260246000fd5b6000611d4d82611327565b91507fffffffffffffffffffffffffffffffffffffffffffffffffffffffffffffffff8203611d7f57611d7e611b20565b5b60018201905091905056fea2646970667358221220879b713b1d3b2fedfedf0ddc538ddabf7900b4c5a5359498b24d9cacbbb7097264736f6c63430008110033",
  "linkReferences": {},
  "deployedLinkReferences": {}
}